{
  "_format": "hh-sol-artifact-1",
  "contractName": "CHONK9K",
  "sourceName": "contracts/CHONK9K.sol",
  "abi": [
    {
      "inputs": [],
      "stateMutability": "nonpayable",
      "type": "constructor"
    },
    {
      "inputs": [
        {
          "internalType": "address",
          "name": "spender",
          "type": "address"
        },
        {
          "internalType": "uint256",
          "name": "allowance",
          "type": "uint256"
        },
        {
          "internalType": "uint256",
          "name": "needed",
          "type": "uint256"
        }
      ],
      "name": "ERC20InsufficientAllowance",
      "type": "error"
    },
    {
      "inputs": [
        {
          "internalType": "address",
          "name": "sender",
          "type": "address"
        },
        {
          "internalType": "uint256",
          "name": "balance",
          "type": "uint256"
        },
        {
          "internalType": "uint256",
          "name": "needed",
          "type": "uint256"
        }
      ],
      "name": "ERC20InsufficientBalance",
      "type": "error"
    },
    {
      "inputs": [
        {
          "internalType": "address",
          "name": "approver",
          "type": "address"
        }
      ],
      "name": "ERC20InvalidApprover",
      "type": "error"
    },
    {
      "inputs": [
        {
          "internalType": "address",
          "name": "receiver",
          "type": "address"
        }
      ],
      "name": "ERC20InvalidReceiver",
      "type": "error"
    },
    {
      "inputs": [
        {
          "internalType": "address",
          "name": "sender",
          "type": "address"
        }
      ],
      "name": "ERC20InvalidSender",
      "type": "error"
    },
    {
      "inputs": [
        {
          "internalType": "address",
          "name": "spender",
          "type": "address"
        }
      ],
      "name": "ERC20InvalidSpender",
      "type": "error"
    },
    {
      "inputs": [
        {
          "internalType": "address",
          "name": "owner",
          "type": "address"
        }
      ],
      "name": "OwnableInvalidOwner",
      "type": "error"
    },
    {
      "inputs": [
        {
          "internalType": "address",
          "name": "account",
          "type": "address"
        }
      ],
      "name": "OwnableUnauthorizedAccount",
      "type": "error"
    },
    {
      "anonymous": false,
      "inputs": [
        {
          "indexed": true,
          "internalType": "address",
          "name": "owner",
          "type": "address"
        },
        {
          "indexed": true,
          "internalType": "address",
          "name": "spender",
          "type": "address"
        },
        {
          "indexed": false,
          "internalType": "uint256",
          "name": "value",
          "type": "uint256"
        }
      ],
      "name": "Approval",
      "type": "event"
    },
    {
      "anonymous": false,
      "inputs": [
        {
          "indexed": true,
          "internalType": "address",
          "name": "previousOwner",
          "type": "address"
        },
        {
          "indexed": true,
          "internalType": "address",
          "name": "newOwner",
          "type": "address"
        }
      ],
      "name": "OwnershipTransferred",
      "type": "event"
    },
    {
      "anonymous": false,
      "inputs": [
        {
          "indexed": true,
          "internalType": "address",
          "name": "from",
          "type": "address"
        },
        {
          "indexed": true,
          "internalType": "address",
          "name": "to",
          "type": "address"
        },
        {
          "indexed": false,
          "internalType": "uint256",
          "name": "value",
          "type": "uint256"
        }
      ],
      "name": "Transfer",
      "type": "event"
    },
    {
      "inputs": [],
      "name": "BURN_FEE",
      "outputs": [
        {
          "internalType": "uint256",
          "name": "",
          "type": "uint256"
        }
      ],
      "stateMutability": "view",
      "type": "function"
    },
    {
      "inputs": [],
      "name": "DEV_FEE",
      "outputs": [
        {
          "internalType": "uint256",
          "name": "",
          "type": "uint256"
        }
      ],
      "stateMutability": "view",
      "type": "function"
    },
    {
      "inputs": [
        {
          "internalType": "address",
          "name": "owner",
          "type": "address"
        },
        {
          "internalType": "address",
          "name": "spender",
          "type": "address"
        }
      ],
      "name": "allowance",
      "outputs": [
        {
          "internalType": "uint256",
          "name": "",
          "type": "uint256"
        }
      ],
      "stateMutability": "view",
      "type": "function"
    },
    {
      "inputs": [
        {
          "internalType": "address",
          "name": "spender",
          "type": "address"
        },
        {
          "internalType": "uint256",
          "name": "value",
          "type": "uint256"
        }
      ],
      "name": "approve",
      "outputs": [
        {
          "internalType": "bool",
          "name": "",
          "type": "bool"
        }
      ],
      "stateMutability": "nonpayable",
      "type": "function"
    },
    {
      "inputs": [
        {
          "internalType": "address",
          "name": "account",
          "type": "address"
        }
      ],
      "name": "balanceOf",
      "outputs": [
        {
          "internalType": "uint256",
          "name": "",
          "type": "uint256"
        }
      ],
      "stateMutability": "view",
      "type": "function"
    },
    {
      "inputs": [],
      "name": "decimals",
      "outputs": [
        {
          "internalType": "uint8",
          "name": "",
          "type": "uint8"
        }
      ],
      "stateMutability": "view",
      "type": "function"
    },
    {
      "inputs": [],
      "name": "name",
      "outputs": [
        {
          "internalType": "string",
          "name": "",
          "type": "string"
        }
      ],
      "stateMutability": "view",
      "type": "function"
    },
    {
      "inputs": [],
      "name": "owner",
      "outputs": [
        {
          "internalType": "address",
          "name": "",
          "type": "address"
        }
      ],
      "stateMutability": "view",
      "type": "function"
    },
    {
      "inputs": [],
      "name": "renounceOwnership",
      "outputs": [],
      "stateMutability": "nonpayable",
      "type": "function"
    },
    {
      "inputs": [],
      "name": "symbol",
      "outputs": [
        {
          "internalType": "string",
          "name": "",
          "type": "string"
        }
      ],
      "stateMutability": "view",
      "type": "function"
    },
    {
      "inputs": [],
      "name": "totalSupply",
      "outputs": [
        {
          "internalType": "uint256",
          "name": "",
          "type": "uint256"
        }
      ],
      "stateMutability": "view",
      "type": "function"
    },
    {
      "inputs": [
        {
          "internalType": "address",
          "name": "to",
          "type": "address"
        },
        {
          "internalType": "uint256",
          "name": "value",
          "type": "uint256"
        }
      ],
      "name": "transfer",
      "outputs": [
        {
          "internalType": "bool",
          "name": "",
          "type": "bool"
        }
      ],
      "stateMutability": "nonpayable",
      "type": "function"
    },
    {
      "inputs": [
        {
          "internalType": "address",
          "name": "from",
          "type": "address"
        },
        {
          "internalType": "address",
          "name": "to",
          "type": "address"
        },
        {
          "internalType": "uint256",
          "name": "value",
          "type": "uint256"
        }
      ],
      "name": "transferFrom",
      "outputs": [
        {
          "internalType": "bool",
          "name": "",
          "type": "bool"
        }
      ],
      "stateMutability": "nonpayable",
      "type": "function"
    },
    {
      "inputs": [
        {
          "internalType": "address",
          "name": "newOwner",
          "type": "address"
        }
      ],
      "name": "transferOwnership",
      "outputs": [],
      "stateMutability": "nonpayable",
      "type": "function"
    }
  ],
  "bytecode": "0x60806040523480156200001157600080fd5b50336040518060400160405280600d81526020017f43686f6e6b396b20546f6b656e000000000000000000000000000000000000008152506040518060400160405280600781526020017f43484f4e4b394b000000000000000000000000000000000000000000000000008152508160039081620000909190620008b6565b508060049081620000a29190620008b6565b505050600073ffffffffffffffffffffffffffffffffffffffff168173ffffffffffffffffffffffffffffffffffffffff16036200011a5760006040517f1e4fbdf7000000000000000000000000000000000000000000000000000000008152600401620001119190620009e2565b60405180910390fd5b6200012b816200015060201b60201c565b506200014a336b1d14a0219e548224280000006200021660201b60201c565b62000bc1565b6000600560009054906101000a900473ffffffffffffffffffffffffffffffffffffffff16905081600560006101000a81548173ffffffffffffffffffffffffffffffffffffffff021916908373ffffffffffffffffffffffffffffffffffffffff1602179055508173ffffffffffffffffffffffffffffffffffffffff168173ffffffffffffffffffffffffffffffffffffffff167f8be0079c531659141344cd1fd0a4f28419497f9722a3daafe3b4186f6b6457e060405160405180910390a35050565b600073ffffffffffffffffffffffffffffffffffffffff168273ffffffffffffffffffffffffffffffffffffffff16036200028b5760006040517fec442f05000000000000000000000000000000000000000000000000000000008152600401620002829190620009e2565b60405180910390fd5b6200029f60008383620002a360201b60201c565b5050565b600073ffffffffffffffffffffffffffffffffffffffff168373ffffffffffffffffffffffffffffffffffffffff16141580156200030e5750600073ffffffffffffffffffffffffffffffffffffffff168273ffffffffffffffffffffffffffffffffffffffff1614155b15620003c957600061271060648362000328919062000a2e565b62000334919062000aa8565b905060006127106064846200034a919062000a2e565b62000356919062000aa8565b9050600081838562000369919062000ae0565b62000375919062000ae0565b90506200038b86600085620003e260201b60201c565b620003ad86620003a06200061260201b60201c565b84620003e260201b60201c565b620003c0868683620003e260201b60201c565b505050620003dd565b620003dc838383620003e260201b60201c565b5b505050565b600073ffffffffffffffffffffffffffffffffffffffff168373ffffffffffffffffffffffffffffffffffffffff1603620004385780600260008282546200042b919062000b1b565b925050819055506200050e565b60008060008573ffffffffffffffffffffffffffffffffffffffff1673ffffffffffffffffffffffffffffffffffffffff16815260200190815260200160002054905081811015620004c7578381836040517fe450d38c000000000000000000000000000000000000000000000000000000008152600401620004be9392919062000b67565b60405180910390fd5b8181036000808673ffffffffffffffffffffffffffffffffffffffff1673ffffffffffffffffffffffffffffffffffffffff16815260200190815260200160002081905550505b600073ffffffffffffffffffffffffffffffffffffffff168273ffffffffffffffffffffffffffffffffffffffff1603620005595780600260008282540392505081905550620005a6565b806000808473ffffffffffffffffffffffffffffffffffffffff1673ffffffffffffffffffffffffffffffffffffffff168152602001908152602001600020600082825401925050819055505b8173ffffffffffffffffffffffffffffffffffffffff168373ffffffffffffffffffffffffffffffffffffffff167fddf252ad1be2c89b69c2b068fc378daa952ba7f163c4a11628f55a4df523b3ef8360405162000605919062000ba4565b60405180910390a3505050565b6000600560009054906101000a900473ffffffffffffffffffffffffffffffffffffffff16905090565b600081519050919050565b7f4e487b7100000000000000000000000000000000000000000000000000000000600052604160045260246000fd5b7f4e487b7100000000000000000000000000000000000000000000000000000000600052602260045260246000fd5b60006002820490506001821680620006be57607f821691505b602082108103620006d457620006d362000676565b5b50919050565b60008190508160005260206000209050919050565b60006020601f8301049050919050565b600082821b905092915050565b6000600883026200073e7fffffffffffffffffffffffffffffffffffffffffffffffffffffffffffffffff82620006ff565b6200074a8683620006ff565b95508019841693508086168417925050509392505050565b6000819050919050565b6000819050919050565b600062000797620007916200078b8462000762565b6200076c565b62000762565b9050919050565b6000819050919050565b620007b38362000776565b620007cb620007c2826200079e565b8484546200070c565b825550505050565b600090565b620007e2620007d3565b620007ef818484620007a8565b505050565b5b8181101562000817576200080b600082620007d8565b600181019050620007f5565b5050565b601f82111562000866576200083081620006da565b6200083b84620006ef565b810160208510156200084b578190505b620008636200085a85620006ef565b830182620007f4565b50505b505050565b600082821c905092915050565b60006200088b600019846008026200086b565b1980831691505092915050565b6000620008a6838362000878565b9150826002028217905092915050565b620008c1826200063c565b67ffffffffffffffff811115620008dd57620008dc62000647565b5b620008e98254620006a5565b620008f68282856200081b565b600060209050601f8311600181146200092e576000841562000919578287015190505b62000925858262000898565b86555062000995565b601f1984166200093e86620006da565b60005b82811015620009685784890151825560018201915060208501945060208101905062000941565b8683101562000988578489015162000984601f89168262000878565b8355505b6001600288020188555050505b505050505050565b600073ffffffffffffffffffffffffffffffffffffffff82169050919050565b6000620009ca826200099d565b9050919050565b620009dc81620009bd565b82525050565b6000602082019050620009f96000830184620009d1565b92915050565b7f4e487b7100000000000000000000000000000000000000000000000000000000600052601160045260246000fd5b600062000a3b8262000762565b915062000a488362000762565b925082820262000a588162000762565b9150828204841483151762000a725762000a71620009ff565b5b5092915050565b7f4e487b7100000000000000000000000000000000000000000000000000000000600052601260045260246000fd5b600062000ab58262000762565b915062000ac28362000762565b92508262000ad55762000ad462000a79565b5b828204905092915050565b600062000aed8262000762565b915062000afa8362000762565b925082820390508181111562000b155762000b14620009ff565b5b92915050565b600062000b288262000762565b915062000b358362000762565b925082820190508082111562000b505762000b4f620009ff565b5b92915050565b62000b618162000762565b82525050565b600060608201905062000b7e6000830186620009d1565b62000b8d602083018562000b56565b62000b9c604083018462000b56565b949350505050565b600060208201905062000bbb600083018462000b56565b92915050565b6113268062000bd16000396000f3fe608060405234801561001057600080fd5b50600436106100ea5760003560e01c806370a082311161008c57806395d89b411161006657806395d89b411461023d578063a9059cbb1461025b578063dd62ed3e1461028b578063f2fde38b146102bb576100ea565b806370a08231146101e5578063715018a6146102155780638da5cb5b1461021f576100ea565b806323b872dd116100c857806323b872dd1461015b578063313ce5671461018b578063436a88c1146101a9578063480df058146101c7576100ea565b806306fdde03146100ef578063095ea7b31461010d57806318160ddd1461013d575b600080fd5b6100f76102d7565b6040516101049190610ea4565b60405180910390f35b61012760048036038101906101229190610f5f565b610369565b6040516101349190610fba565b60405180910390f35b61014561038c565b6040516101529190610fe4565b60405180910390f35b61017560048036038101906101709190610fff565b610396565b6040516101829190610fba565b60405180910390f35b6101936103c5565b6040516101a0919061106e565b60405180910390f35b6101b16103ce565b6040516101be9190610fe4565b60405180910390f35b6101cf6103d3565b6040516101dc9190610fe4565b60405180910390f35b6101ff60048036038101906101fa9190611089565b6103d8565b60405161020c9190610fe4565b60405180910390f35b61021d610420565b005b610227610434565b60405161023491906110c5565b60405180910390f35b61024561045e565b6040516102529190610ea4565b60405180910390f35b61027560048036038101906102709190610f5f565b6104f0565b6040516102829190610fba565b60405180910390f35b6102a560048036038101906102a091906110e0565b610513565b6040516102b29190610fe4565b60405180910390f35b6102d560048036038101906102d09190611089565b61059a565b005b6060600380546102e69061114f565b80601f01602080910402602001604051908101604052809291908181526020018280546103129061114f565b801561035f5780601f106103345761010080835404028352916020019161035f565b820191906000526020600020905b81548152906001019060200180831161034257829003601f168201915b5050505050905090565b600080610374610620565b9050610381818585610628565b600191505092915050565b6000600254905090565b6000806103a1610620565b90506103ae85828561063a565b6103b98585856106cf565b60019150509392505050565b60006012905090565b606481565b606481565b60008060008373ffffffffffffffffffffffffffffffffffffffff1673ffffffffffffffffffffffffffffffffffffffff168152602001908152602001600020549050919050565b6104286107c3565b610432600061084a565b565b6000600560009054906101000a900473ffffffffffffffffffffffffffffffffffffffff16905090565b60606004805461046d9061114f565b80601f01602080910402602001604051908101604052809291908181526020018280546104999061114f565b80156104e65780601f106104bb576101008083540402835291602001916104e6565b820191906000526020600020905b8154815290600101906020018083116104c957829003601f168201915b5050505050905090565b6000806104fb610620565b90506105088185856106cf565b600191505092915050565b6000600160008473ffffffffffffffffffffffffffffffffffffffff1673ffffffffffffffffffffffffffffffffffffffff16815260200190815260200160002060008373ffffffffffffffffffffffffffffffffffffffff1673ffffffffffffffffffffffffffffffffffffffff16815260200190815260200160002054905092915050565b6105a26107c3565b600073ffffffffffffffffffffffffffffffffffffffff168173ffffffffffffffffffffffffffffffffffffffff16036106145760006040517f1e4fbdf700000000000000000000000000000000000000000000000000000000815260040161060b91906110c5565b60405180910390fd5b61061d8161084a565b50565b600033905090565b6106358383836001610910565b505050565b60006106468484610513565b90507fffffffffffffffffffffffffffffffffffffffffffffffffffffffffffffffff8110156106c957818110156106b9578281836040517ffb8f41b20000000000000000000000000000000000000000000000000000000081526004016106b093929190611180565b60405180910390fd5b6106c884848484036000610910565b5b50505050565b600073ffffffffffffffffffffffffffffffffffffffff168373ffffffffffffffffffffffffffffffffffffffff16036107415760006040517f96c6fd1e00000000000000000000000000000000000000000000000000000000815260040161073891906110c5565b60405180910390fd5b600073ffffffffffffffffffffffffffffffffffffffff168273ffffffffffffffffffffffffffffffffffffffff16036107b35760006040517fec442f050000000000000000000000000000000000000000000000000000000081526004016107aa91906110c5565b60405180910390fd5b6107be838383610ae7565b505050565b6107cb610620565b73ffffffffffffffffffffffffffffffffffffffff166107e9610434565b73ffffffffffffffffffffffffffffffffffffffff16146108485761080c610620565b6040517f118cdaa700000000000000000000000000000000000000000000000000000000815260040161083f91906110c5565b60405180910390fd5b565b6000600560009054906101000a900473ffffffffffffffffffffffffffffffffffffffff16905081600560006101000a81548173ffffffffffffffffffffffffffffffffffffffff021916908373ffffffffffffffffffffffffffffffffffffffff1602179055508173ffffffffffffffffffffffffffffffffffffffff168173ffffffffffffffffffffffffffffffffffffffff167f8be0079c531659141344cd1fd0a4f28419497f9722a3daafe3b4186f6b6457e060405160405180910390a35050565b600073ffffffffffffffffffffffffffffffffffffffff168473ffffffffffffffffffffffffffffffffffffffff16036109825760006040517fe602df0500000000000000000000000000000000000000000000000000000000815260040161097991906110c5565b60405180910390fd5b600073ffffffffffffffffffffffffffffffffffffffff168373ffffffffffffffffffffffffffffffffffffffff16036109f45760006040517f94280d620000000000000000000000000000000000000000000000000000000081526004016109eb91906110c5565b60405180910390fd5b81600160008673ffffffffffffffffffffffffffffffffffffffff1673ffffffffffffffffffffffffffffffffffffffff16815260200190815260200160002060008573ffffffffffffffffffffffffffffffffffffffff1673ffffffffffffffffffffffffffffffffffffffff168152602001908152602001600020819055508015610ae1578273ffffffffffffffffffffffffffffffffffffffff168473ffffffffffffffffffffffffffffffffffffffff167f8c5be1e5ebec7d5bd14f71427d1e84f3dd0314c0f7b2291e5b200ac8c7c3b92584604051610ad89190610fe4565b60405180910390a35b50505050565b600073ffffffffffffffffffffffffffffffffffffffff168373ffffffffffffffffffffffffffffffffffffffff1614158015610b515750600073ffffffffffffffffffffffffffffffffffffffff168273ffffffffffffffffffffffffffffffffffffffff1614155b15610bde576000612710606483610b6891906111e6565b610b729190611257565b90506000612710606484610b8691906111e6565b610b909190611257565b90506000818385610ba19190611288565b610bab9190611288565b9050610bb986600085610bef565b610bcb86610bc5610434565b84610bef565b610bd6868683610bef565b505050610bea565b610be9838383610bef565b5b505050565b600073ffffffffffffffffffffffffffffffffffffffff168373ffffffffffffffffffffffffffffffffffffffff1603610c41578060026000828254610c3591906112bc565b92505081905550610d14565b60008060008573ffffffffffffffffffffffffffffffffffffffff1673ffffffffffffffffffffffffffffffffffffffff16815260200190815260200160002054905081811015610ccd578381836040517fe450d38c000000000000000000000000000000000000000000000000000000008152600401610cc493929190611180565b60405180910390fd5b8181036000808673ffffffffffffffffffffffffffffffffffffffff1673ffffffffffffffffffffffffffffffffffffffff16815260200190815260200160002081905550505b600073ffffffffffffffffffffffffffffffffffffffff168273ffffffffffffffffffffffffffffffffffffffff1603610d5d5780600260008282540392505081905550610daa565b806000808473ffffffffffffffffffffffffffffffffffffffff1673ffffffffffffffffffffffffffffffffffffffff168152602001908152602001600020600082825401925050819055505b8173ffffffffffffffffffffffffffffffffffffffff168373ffffffffffffffffffffffffffffffffffffffff167fddf252ad1be2c89b69c2b068fc378daa952ba7f163c4a11628f55a4df523b3ef83604051610e079190610fe4565b60405180910390a3505050565b600081519050919050565b600082825260208201905092915050565b60005b83811015610e4e578082015181840152602081019050610e33565b60008484015250505050565b6000601f19601f8301169050919050565b6000610e7682610e14565b610e808185610e1f565b9350610e90818560208601610e30565b610e9981610e5a565b840191505092915050565b60006020820190508181036000830152610ebe8184610e6b565b905092915050565b600080fd5b600073ffffffffffffffffffffffffffffffffffffffff82169050919050565b6000610ef682610ecb565b9050919050565b610f0681610eeb565b8114610f1157600080fd5b50565b600081359050610f2381610efd565b92915050565b6000819050919050565b610f3c81610f29565b8114610f4757600080fd5b50565b600081359050610f5981610f33565b92915050565b60008060408385031215610f7657610f75610ec6565b5b6000610f8485828601610f14565b9250506020610f9585828601610f4a565b9150509250929050565b60008115159050919050565b610fb481610f9f565b82525050565b6000602082019050610fcf6000830184610fab565b92915050565b610fde81610f29565b82525050565b6000602082019050610ff96000830184610fd5565b92915050565b60008060006060848603121561101857611017610ec6565b5b600061102686828701610f14565b935050602061103786828701610f14565b925050604061104886828701610f4a565b9150509250925092565b600060ff82169050919050565b61106881611052565b82525050565b6000602082019050611083600083018461105f565b92915050565b60006020828403121561109f5761109e610ec6565b5b60006110ad84828501610f14565b91505092915050565b6110bf81610eeb565b82525050565b60006020820190506110da60008301846110b6565b92915050565b600080604083850312156110f7576110f6610ec6565b5b600061110585828601610f14565b925050602061111685828601610f14565b9150509250929050565b7f4e487b7100000000000000000000000000000000000000000000000000000000600052602260045260246000fd5b6000600282049050600182168061116757607f821691505b60208210810361117a57611179611120565b5b50919050565b600060608201905061119560008301866110b6565b6111a26020830185610fd5565b6111af6040830184610fd5565b949350505050565b7f4e487b7100000000000000000000000000000000000000000000000000000000600052601160045260246000fd5b60006111f182610f29565b91506111fc83610f29565b925082820261120a81610f29565b91508282048414831517611221576112206111b7565b5b5092915050565b7f4e487b7100000000000000000000000000000000000000000000000000000000600052601260045260246000fd5b600061126282610f29565b915061126d83610f29565b92508261127d5761127c611228565b5b828204905092915050565b600061129382610f29565b915061129e83610f29565b92508282039050818111156112b6576112b56111b7565b5b92915050565b60006112c782610f29565b91506112d283610f29565b92508282019050808211156112ea576112e96111b7565b5b9291505056fea2646970667358221220662f371bac520937a68ffd614fda8e6a0be171b2c57878749138e44255cd7c5264736f6c63430008140033",
  "linkReferences": {},
  "deployedLinkReferences": {}
}